:100000000C942A010C9452010C9452010C9452014C
:100010000C9452010C9452010C9452010C94520114
:100020000C9452010C9452010C94970B0C94630A9B
:100030000C9452010C9452010C9452010C945201F4
:100040000C9452010C9452010C9452010C945201E4
:100050000C9452010C9452010C9452010C947C07A4
:100060000C9452010C94C3060C94F5060C945201A6
:100070000C9452010C9452010C9452010C945201B4
:100080000C9452010C9452010C9452010C945201A4
:100090000C9452010C9452010C9452010C94520194
:1000A0000C9452010C9452010C94520105B8310584
:1000B000B81805B80905B80405B80305B80105B8AE
:1000C0000002908000C18081C11201000202000084
:1000D00040412336800001010200011201000200AC
:1000E000000040412336800001010200014172649A
:1000F00075696E6F204C4C430041726475696E6F78
:10010000204C656F6E6172646F0004030904000087
:100110000000000000002A2B280000000000000062
:1001200000000000000000000000000000002C9E05
:10013000B4A0A1A2A434A6A7A5AE362D3738271E99
:100140001F20212223242526B333B62EB7B89F843F
:1001500085868788898A8B8C8D8E8F9091929394D7
:1001600095969798999A9B9C9D2F3130A3AD350415
:1001700005060708090A0B0C0D0E0F1011121314B7
:1001800015161718191A1B1C1DAFB1B0B5000904BC
:1001900002000103000000092101010001226500A5
:1001A0000705840340000105010902A1010901A11D
:1001B000008501050919012903150025019503751D
:1001C0000181029501750581030501093009310995
:1001D000381581257F750895038106C0C005010982
:1001E00006A1018502050719E029E715002501751B
:1001F000019508810295017508810395067508151A
:100200000025650507190029658100C0080B00025B
:10021000020201000904000001020200000524009E
:100220001001052401010104240206052406000131
:100230000705810310004009040100020A000000C4
:100240000705020240000007058302400000250761
:10025000410D0C0E11241FBECFEFDAE0DEBFCDBF83
:1002600011E0A0E0B1E0EEECFCE102C005900D92DF
:10027000A637B107D9F722E0A6E7B1E001C01D9289
:10028000A53DB207E1F712E0C4E5D2E004C0229731
:10029000FE010E944D0ECE34D107C9F70E946907B6
:1002A0000C94650E0C94000026E040E855E260E0F6
:1002B00070E089EC91E00E94390665E088EC91E0FD
:1002C0000E94E80388EC91E00E94DF0488EC91E052
:1002D0000C94A404CF93E0E0F0E040E050E020E094
:1002E00030E0D901A858BE4FAC91AC3219F4319628
:1002F0002F5F3F4FE617F70751F4D901A858BE4FBB
:10030000CC91DC01A40FB51FCC934F5F5F4F2F5FE3
:100310003F4F203531052CF3FC01E40FF51F10820F
:10032000CF910895CF93DF93CDB7DEB7C654D109EF
:100330000FB6F894DEBF0FBECDBF60E070E0CE0117
:10034000C3960E946A016AE071E0CE01C3960E94E2
:100350005C0E892B09F0AAC062E070E0CE01C39662
:100360000E946A0161E171E0CE01C3960E945C0EB9
:10037000892B09F095C063E070E0CE01C3960E941E
:100380006A0163E171E0CE0101960E94510E6BA9F2
:10039000772767FD7095675E7E4FCE0101960E94BC
:1003A000510E6CA9772767FD7095675E7E4FCE0171
:1003B00001960E94510E6AE171E0CE0101960E9401
:1003C000510EBE016B5C7F4FCE0101960E94510E13
:1003D00060E271E0CE0101960E94510E64E070E08F
:1003E000CE01C3960E946A01BE016D5C7F4FCE01B3
:1003F00001960E94510EBE016F5F7F4F88EC91E025
:100400000E94E30465E070E0CE01C3960E946A0199
:1004100065E271E0CE0101960E94510E6BA977272B
:1004200067FD7095675E7E4FCE0101960E94510E6A
:100430006CA9772767FD7095675E7E4FCE010196A8
:100440000E94510E6DA9772767FD7095675E7E4FFC
:10045000CE0101960E94510E6CE271E0CE01019630
:100460000E94510EBE016A5C7F4FCE0101960E9430
:10047000510E60E271E0CE0101960E94510E66E0DD
:1004800070E0CE01C3960E946A01BE016D5C7F4F91
:10049000CE0101960E94510EBE016F5F7F4F02C0D8
:1004A00061E371E088EC91E00E94E304CA5BDF4FF6
:1004B0000FB6F894DEBF0FBECDBFDF91CF91089588
:1004C00089EC91E00E94560518161906FCF489EC97
:1004D00091E00E946F052091760130917701F9013A
:1004E000E858FE4F8A3059F02035310544F48083B6
:1004F0002F5F3F4F3093770120937601089510824C
:1005000010927701109276010C94920108950DB427
:1005100007FEFDCF8EB508956EBD0DB407FEFDCF6D
:100520008EB50895EF92FF920F931F93CF93DF93B1
:100530001F92CDB7DEB77C018B01FB01442301F193
:100540008281938135E0969587953A95E1F78EBD46
:100550008281F8E08F9FB0011124607E6860837013
:10056000682B69830E9487026981C7010E948C02FF
:10057000F8016181C7010E948C02F801608118C0F6
:100580008081918123E0969587952A95E1F78EBD2C
:1005900060816295660F607E69830E94870269812F
:1005A000C7010E948C0260E0C7010E948C0260E0DB
:1005B000C7010F90DF91CF911F910F91FF90EF90A6
:1005C0000C948C02EF92FF921F93CF93DF931F92B4
:1005D000CDB7DEB77C01162F289862E049830E94D0
:1005E0008C02612FC7010E948C024981642FC701D0
:1005F0000E948C02289A0F90DF91CF911F91FF905B
:10060000EF9008951F93CF93DF93EC01162F289856
:1006100063E00E948C02612FCE010E948C026FEF7A
:10062000CE010E948C02289ADF91CF911F910895EC
:10063000EF92FF921F93CF93DF9300D0CDB7DEB739
:100640007C01162F289865E02A8349830E948C023A
:10065000612FC7010E948C024981642FC7010E944B
:100660008C022A81622FC7010E948C02289A0F9067
:100670000F90DF91CF911F91FF90EF9008950F930E
:100680001F93CF93DF93EC016115710541F0613049
:10069000710539F06330710531F000E005C000E606
:1006A00003C000E401C000E2202F40EE6FE0CE0165
:1006B0000E94180310E06EE0CE010E940203807ECB
:1006C00090E080179107B9F7DF91CF911F910F91BB
:1006D00008951F93CF93DF93EC0128980E948C021A
:1006E0006FEFCE010E948C02182F6FEFCE010E9497
:1006F0008C02289A812FDF91CF911F910895CF927C
:10070000DF92EF92FF920F931F93CF93DF93EC0151
:100710008B0160EA0E94690382FF07C084FF07C063
:1007200086FD4CC084E0D82E04C0D12C02C0B2E0BB
:10073000DB2E28986D2D6064CE010E948C02F8019A
:1007400044814295440F440F407C440F440BB80150
:10075000CE010E949202F801C580FC2DFF70CF2EC1
:10076000F80184816C2D80FF05C06064CE010E9479
:100770008C0212C0CE010E948C02E12CF12CEC14F0
:1007800058F4F801EE0DFF1D6681CE010E948C0227
:10079000FFEFEF1AFF0AF3CF289A85E08A95F1F769
:1007A00000002898D11002C0DD24D3946D2D60681C
:1007B000CE010E948C02289A8D2D01C080E0DF912D
:1007C000CF911F910F91FF90EF90DF90CF90089500
:1007D000CF92DF92EF92FF920F931F93CF93DF930D
:1007E000EC01C62E87E0861710F480E06AC0289AD4
:1007F000209A29982A982B98219A229A239881E561
:100800008CBD81E08DBD289860ECCE010E948C02E9
:100810008FE99FE00197F1F700C00000289A8FE36D
:100820009CE90197F1F700C00000289862E0CE0132
:100830000E948C0268E2CE010E948C0293E0C99E65
:100840007001112400E010E0D12CC70184559F4FA6
:100850007C01F701E00FF11F6491CE010E948C0230
:100860000F5F1F4F03301105A1F763E0CE010E9417
:100870008C02289A40E06DE0CE010E94E20250987E
:10088000589A40E06CE0CE010E94E20269E2CE019B
:100890000E940203082FF601EE0FFF1FEC0DFD1D55
:1008A000E355FF4F149140E06FE0CE010E94E20259
:1008B00001139BCF6EE0CE010E940203807ED1F730
:1008C00081E0DF91CF911F910F91FF90EF90DF902A
:1008D000CF900895DF92EF92FF920F931F93CF93E3
:1008E000DF93EC01162FD42EF22E20E840EE6FE0BD
:1008F0000E9418036EE0CE010E940203807E8038C1
:10090000C9F74D2D612FCE010E94E20261E0610F17
:100910004F2DCE010E94E20262E0610F402FCE0116
:100920000E94E20263E0610F4E2DCE010E94E202BE
:1009300062E070E0CE01DF91CF911F910F91FF90A7
:10094000EF90DF900C943F03EF920F93CF93DF93E0
:10095000EC01E12C00E020E040E060E20E946A044B
:1009600020E040E060E0CE010E946A0420E040E028
:1009700064E0CE010E946A0420E040E064E2CE011F
:100980000E946A0420E040E068E0CE010E946A0410
:1009900020E040E060E1CE010E946A0420E040E0F7
:1009A00064E1CE010E946A0420E040E068E1CE01EB
:1009B0000E946A04DF91CF910F91EF90089543E078
:1009C0006BE20C94E2027F928F929F92AF92BF9261
:1009D000CF92DF92EF92FF920F931F93CF93DF930B
:1009E000CDB7DEB72E970FB6F894DEBF0FBECDBFE2
:1009F0005C017B014FEF50E060E070E049835A8377
:100A00006B837C838D818E7F8D7F8D83470100E09A
:100A100010E0C12CD12C48E0742EF7010190002089
:100A2000E9F7EE19FF090E171F0760F5F401219190
:100A30004F012223B9F0C80187709927E7E0F0E061
:100A4000EC0FFD1FE80FF91F20830797C1F47E828A
:100A5000BE016F5F7F4FC5010E947F038FEFC81AF1
:100A6000D80A0DC00150F8EFCF9E000D11240E835F
:100A7000BE016F5F7F4FC5010E947F0303C00F5F00
:100A80001F4FCBCF2E960FB6F894DEBF0FBECDBF53
:100A9000DF91CF911F910F91FF90EF90DF90CF905A
:100AA000BF90AF909F908F907F900895FC01818DB3
:100AB000228D90E0805C9F4F821B91098F73992754
:100AC0000895FC01918D828D981731F0828DE80F89
:100AD000F11D858D90E008958FEF9FEF0895FC0143
:100AE000918D828D981761F0828DDF01A80FB11D65
:100AF0005D968C91928D9F5F9F73928F90E0089589
:100B00008FEF9FEF08958BE197E0892B49F080E00C
:100B100090E0892B29F00E941B0781110C940000A2
:100B20000895FC01848DDF01A80FB11DA35ABF4FAA
:100B30002C91848D90E001968F739927848FA689DC
:100B4000B7892C93A089B1898C9180648C93938D03
:100B5000848D981306C00288F389E02D80818F7DF3
:100B600080830895CF93DF93EC01888D8823C9F0AB
:100B7000EA89FB89808185FD05C0A889B9898C91A6
:100B800086FD0FC00FB607FCF5CF808185FFF2CF41
:100B9000A889B9898C9185FFEDCFCE010E9491057E
:100BA000E7CFDF91CF910895CF92DF92FF920F931D
:100BB0001F93CF93DF931F92CDB7DEB76C01DC019B
:100BC0005B969C915B975C968C915C97981307C0A1
:100BD0005096ED91FC915197808185FD32C0F601D0
:100BE000038D10E00F5F1F4F0F731127F02EF601DA
:100BF000848DF81211C00FB607FCF9CFD6015096BC
:100C0000ED91FC915197808185FFF1CFC6016983F9
:100C10000E9491056981EBCF838DE80FF11DE35AA6
:100C2000FF4F6083D6015B960C935B975296ED91D4
:100C3000FC91539780818062808381E058968C93E9
:100C40000DC0D6015696ED91FC9157976083509652
:100C5000ED91FC91519780818064808381E090E0E8
:100C60000F90DF91CF911F910F91FF90DF90CF9068
:100C70000895BF92CF92DF92EF92FF92CF93DF93CE
:100C8000EC016A017B01B22EE889F98982E0808358
:100C9000411581EE580761057105A1F060E079E02A
:100CA0008DE390E0A70196010E94290E21503109A1
:100CB000410951095695479537952795211580E1AA
:100CC000380798F0E889F989108260E874E88EE1C5
:100CD00090E0A70196010E94290E21503109410997
:100CE00051095695479537952795EC85FD853083B5
:100CF000EE85FF852083188EEC89FD89B082EA8914
:100D0000FB89808180618083EA89FB89808188609A
:100D10008083EA89FB89808180688083EA89FB89F6
:100D200080818F7D8083DF91CF91FF90EF90DF9066
:100D3000CF90BF900895CF92DF92EF92FF920F93E2
:100D40001F93CF93DF936C017A01EB01E60EF71E40
:100D500000E010E0CE15DF0561F06991D601ED915C
:100D6000FC910190F081E02DC6010995080F191F33
:100D7000F1CFC801DF91CF911F910F91FF90EF90BC
:100D8000DF90CF9008951F920F920FB60F9211240B
:100D90002F938F939F93EF93FF93E091D901F0915D
:100DA000DA018081E091DF01F091E00182FD12C063
:100DB00090818091E2018F5F8F732091E301821710
:100DC00051F0E091E201F0E0E753FE4F958F809300
:100DD000E20101C08081FF91EF919F918F912F914E
:100DE0000F900FBE0F901F9018951F920F920FB685
:100DF0000F9211242F933F934F935F936F937F93A1
:100E00008F939F93AF93BF93EF93FF9389EC91E000
:100E10000E949105FF91EF91BF91AF919F918F91AA
:100E20007F916F915F914F913F912F910F900FBEE6
:100E30000F901F90189589EC91E00E94560521E0D3
:100E4000892B09F420E0822F08951092CC01109292
:100E5000CB0188EE93E0A0E0B0E08093CD019093C9
:100E6000CE01A093CF01B093D0018BE491E0909399
:100E7000CA018093C9018DEC90E09093D6018093D4
:100E8000D5018CEC90E09093D8018093D70188EC49
:100E900090E09093DA018093D90189EC90E09093EF
:100EA000DC018093DB018AEC90E09093DE0180937B
:100EB000DD018EEC90E09093E0018093DF011092D1
:100EC000E2011092E3011092E4011092E50108950D
:100ED00008950E9411080E9468078FE692E00E9420
:100EE000ED0B0E945401C3E8D5E00E9460022097F8
:100EF000E1F30E948305F9CF1F920F920FB60F9274
:100F000011242F933F938F939F93AF93BF9380911F
:100F1000670290916802A0916902B0916A023091D3
:100F2000660223E0230F2D3720F40196A11DB11D89
:100F300005C026E8230F0296A11DB11D209366026D
:100F40008093670290936802A0936902B0936A024B
:100F500080916B0290916C02A0916D02B0916E0233
:100F60000196A11DB11D80936B0290936C02A0931A
:100F70006D02B0936E02BF91AF919F918F913F919F
:100F80002F910F900FBE0F901F9018953FB7F894B8
:100F900080916B0290916C02A0916D02B0916E02F3
:100FA00026B5A89B05C02F3F19F00196A11DB11DC4
:100FB0003FBF6627782F892F9A2F620F711D811DE1
:100FC000911D42E0660F771F881F991F4A95D1F740
:100FD0000895CF92DF92EF92FF92CF93DF936B0150
:100FE0007C010E94C607EB01C114D104E104F104A5
:100FF00089F00E944E0D0E94C6076C1B7D0B683E57
:10100000734090F381E0C81AD108E108F108C85193
:10101000DC4FEACFDF91CF91FF90EF90DF90CF9040
:101020000895789484B5826084BD84B5816084BD60
:1010300085B5826085BD85B5816085BDEEE6F0E051
:10104000808181608083E1E8F0E0108280818260AD
:101050008083808181608083E0E8F0E0808181602E
:101060008083E1E9F0E0808182608083808181601B
:101070008083E0E9F0E0808181608083E1ECF0E052
:1010800080818460808380818260808380818160B0
:101090008083E3ECF0E0808181608083E0ECF0E02D
:1010A000808182608083E2ECF0E0808181608083D7
:1010B000EAE7F0E0808184608083808182608083C1
:1010C00080818160808380818068808308954091E1
:1010D0007302509174022091710230917202421792
:1010E0005307B4F49091E8009570E1F39091E80013
:1010F00092FD19C08093F100809173029091740267
:1011000001968F739927892B19F48EEF8093E8004D
:10111000809173029091740201969093740280936F
:10112000730281E0089580E00895CF92DF92FF92EC
:101130000F931F93CF93DF931F92CDB7DEB7082F86
:10114000162F862F880F8E5F99830E94670883E091
:101150000E946708F02EC02E9981D92E8C2D8F19F0
:10116000811778F4F60184910E946708082F80E0C7
:101170000E9467088023FFEFCF1ADF0A8111EECFAC
:1011800001C081E00F90DF91CF911F910F91FF90EF
:10119000DF90CF900895615030F02091F100FC0174
:1011A00020830196F8CF289884E6809376020895EC
:1011B0002FB7FC012083F89467706093E9000895CD
:1011C000CF93DF931F92CDB7DEB7682FCE01019684
:1011D0000E94D8088091F20099819FBF0F90DF9103
:1011E000CF910895FF920F931F93CF93DF9300D079
:1011F000CDB7DEB7F62E8A0190917502992311F0D2
:1012000057FF03C08FEF9FEF2BC0682FCE010196D1
:101210007A830E94D8088091F20090E0A8017A8138
:10122000801791070CF4AC01EF2DF72FF40E84E634
:10123000FE1639F02898809376029091F1009193F0
:10124000F7CF4115510521F08091F200882321F05C
:1012500089818FBFCA0104C08BE68093E800F8CF74
:101260000F900F90DF91CF911F910F91FF900895F4
:10127000CF93DF931F92CDB7DEB741E050E0BE01C0
:101280006F5F7F4F0E94F208019719F4898190E007
:1012900002C08FEF9FEF0F90DF91CF910895CF9312
:1012A000DF931F92CDB7DEB7682FCE0101960E9463
:1012B000D8089091E800892F807295FF04C0909122
:1012C000F20080E4891B99819FBF0F90DF91CF913D
:1012D00008956F927F928F929F92AF92BF92CF921A
:1012E000DF92EF92FF920F931F93CF93DF931F92A2
:1012F000CDB7DEB7782E7B01C42EB52E8091750256
:10130000882369F0042F152F8AEFD82E872D80723D
:10131000982E9AE3A92E872D8074882E11C08FEF06
:101320009FEF57C0872D0E944F09682E81110CC076
:10133000DA94A9F361E070E080E090E00E94E907B0
:101340000115110579F73BC0282F30E0021713076C
:101350000CF4602E672DCE0101960E94D808809172
:10136000E80085FF29C0262D30E0021B130B9920D1
:1013700039F06A948FEF6816B1F01092F100F9CF4E
:10138000F701862D77FE07C0815058F09491909315
:10139000F1003196F9CF815020F091919093F100B6
:1013A000FACFE20EF31E8091E80085FF0FC0011511
:1013B000110511F481100AC089818FBFC1CF5D98DA
:1013C00084E6809377028C2D9B2D03C0A092E800C9
:1013D000F3CF0F90DF91CF911F910F91FF90EF907E
:1013E000DF90CF90BF90AF909F908F907F906F9045
:1013F00008951092E9001092740210927302909373
:101400007202809371020895CF92DF92FF920F9340
:101410001F93CF93DF9300D0CDB7DEB7F82E8A01AC
:101420006B0101151105B1F0F601F7FE02C08491C0
:1014300001C0808149835A830E94670801501109C5
:10144000FFEFCF1ADF0A49815A818111EACF8FEF6E
:101450009FEF01C0CA010F900F90DF91CF911F91B4
:101460000F91FF90DF90CF9008951F93CF93DF935C
:101470001F92CDB7DEB7162F2091E80022FFFCCFD8
:10148000612F79830E94CB088BEF8093E800812F36
:101490007981972F0F90DF91CF911F910895CF936E
:1014A000DF931F92CDB7DEB71982CE0101960E945D
:1014B000AC0DCE0101960E94290C898190E00F901D
:1014C000DF91CF9108951F920F920FB60F921124C2
:1014D000EF92FF920F931F932F933F934F935F933E
:1014E0006F937F938F939F93AF93BF93EF93FF93EC
:1014F000CF93DF93CDB7DEB76297DEBFCDBF10923B
:10150000E9008091E80083FFEBC068E0CE010A9615
:101510000E94CB0882EF8093E8009A8597FF05C070
:101520008091E80080FFFCCF03C08EEF8093E8003D
:10153000892F807609F0B9C08B85811105C0109282
:10154000F1001092F100C5C0282F2D7F213009F441
:10155000C0C0853049F48091E80080FFFCCF8C85C5
:1015600080688093E300B5C0863009F076C02D8591
:10157000E888F988223071F580E090E02A8B0E949B
:10158000F9090E944F0A99E08E010F5F1F4FF80181
:10159000392F11923A95E9F799832A892A8391E0A4
:1015A0009E8390E898879AEF9987209173023091F3
:1015B0007402275F3F4F3C832B838D83C7010E94BA
:1015C000F90949E050E0B80180E00E94040A0E9455
:1015D0004F0A7FC0C7012A8B0E94F9092A8922324B
:1015E00041F482E290E00E94340C892B09F071C032
:1015F00074C0213069F488899989089711F420937F
:10160000700280917002811118C06BED70E01AC0F9
:10161000233009F062C08C85882391F0823021F458
:1016200060E189EF90E006C0813009F056C06BE0C0
:101630008DEE90E00E9495084AC069EC70E002C00F
:101640006AE071E06115710509F447C0FB0144913E
:1016500050E080E80E94040A3CC0873009F43DC095
:10166000883021F481E08093F10033C0893089F51E
:10167000937099F5E5ECF0E081E021E096E380934A
:10168000E9002093EB0034913093EC009093ED004F
:101690008F5F3196853099F78EE78093EA0010923C
:1016A000EA008C858093750214C0888999890E940C
:1016B000F9098E85811105C0CE010A960E94B70DE9
:1016C00006C0823051F4CE010A960E945C0C882339
:1016D00021F08EEF8093E80003C081E28093EB005D
:1016E00062960FB6F894DEBF0FBECDBFDF91CF91EB
:1016F000FF91EF91BF91AF919F918F917F916F91EA
:101700005F914F913F912F911F910F91FF90EF901B
:101710000F900FBE0F901F9018958093E900809155
:10172000F200882319F08AE38093E80008951F925D
:101730000F920FB60F9211242F933F934F935F9305
:101740006F937F938F939F93AF93BF93EF93FF9389
:101750008091E1001092E10083FF0FC01092E90038
:1017600091E09093EB001092EC0092E39093ED00E7
:101770001092750298E09093F00082FF1DC083E004
:101780000E948D0B80917702882339F08091770237
:10179000815080937702882369F0809176028823B4
:1017A00059F080917602815080937602811104C0B5
:1017B000289A02C05D9AF1CFFF91EF91BF91AF914E
:1017C0009F918F917F916F915F914F913F912F9159
:1017D0000F900FBE0F901F9018951092750281E028
:1017E0008093D70080EA8093D80082E189BD09B454
:1017F00000FEFDCF61E070E080E090E00E94E9072C
:1018000080E98093D8008CE08093E2001092E000A1
:10181000559A209A0895FF920F931F93CF93DF93C9
:10182000EC01F62EE881F9810480F581E02D09951F
:101830008C01E881F9810680F781E02D6F2DCE01C2
:101840000995C8019927DF91CF911F910F91FF90C2
:101850000895FC0120812F5F208349E150E06EE86C
:1018600071E080E80C94040A45E650E067EA71E014
:1018700080E80C94040AEF92FF920F931F93CF938A
:10188000DF931F92CDB7DEB789838B017A0141E0E8
:1018900050E0BE016F5F7F4F84E00E946909A7019D
:1018A000B80184E40E9469090F90DF91CF911F91E4
:1018B0000F91FF90EF900895FC0191818081813A12
:1018C00031F481E0913091F0933089F411C081328C
:1018D00071F49B3021F482818093010105C09A301C
:1018E00031F482818093000181E00895089580E0C1
:1018F000089548E050E082E00C943B0CCF93DF93D6
:10190000DC01683818F0E8E7E60F25C0E62FF0E0C4
:1019100067FF11C0E058F10981E090E001C0880F35
:10192000EA95EAF714969C911497982B14969C9339
:101930001497E0E010C0E25FFE4FE491EE2309F45B
:1019400040C0E7FF08C014968C91149782601496EB
:101950008C931497EF7716968C9116978E1741F10A
:1019600017968C9117978E1719F118968C911897D6
:101970008E17F1F019968C9119978E17C9F01A9657
:101980008C911A978E17A1F01B968C911B978E172E
:1019900079F080E090E0ED01C80FD91F2E81211170
:1019A00002C0EE8305C0019686309105A1F709C0FB
:1019B000BD016C5F7F4FCD010E94790C81E090E00A
:1019C00008C081E090E013969C938E93129780E07C
:1019D00090E0DF91CF910895683818F0E8E7E60FBE
:1019E00025C0E62FF0E067FF12C0E058F10921E0C2
:1019F00030E001C0220FEA95EAF72095DC01149649
:101A00003C911497322314963C93E0E00FC0E25FC0
:101A1000FE4FE491EE2329F1E7FF08C0DC011496A4
:101A20002C9114972D7F14962C93EF7720E030E0C3
:101A3000EE2351F0DC01A20FB31F16964C911697BE
:101A40004E1302C016961C922F5F3F4F2630310571
:101A500079F7BC016C5F7F4F0E94790C81E090E0C8
:101A6000089580E090E00895FC01168217821086A8
:101A70001186128613861482BC016C5F7F4F0C9412
:101A8000790C1092840210927B0210927A028BE5FC
:101A900091E0909379028093780208950895CF930E
:101AA000DF931F92CDB7DEB76983DC01ED91FC9126
:101AB0000280F381E02D41E050E0BE016F5F7F4F77
:101AC00009950F90DF91CF910895CF93DF93EC01AB
:101AD0008C859D8597FF05C082E00E9438099D870F
:101AE0008C878C859D85DF91CF91089583E00C9440
:101AF0008D0BFC018485958597FD06C082E00E94D0
:101B0000E00890E00196089582E00E94E00890E0ED
:101B10000895FC018485958597FD05C02FEF3FEF63
:101B200035872487089582E00C943809CF93DF939A
:101B3000EC0180910901882331F083E00E9469095A
:101B40001816190634F081E090E09B838A8380E0C8
:101B500090E0DF91CF910895FC0120812E5F2083DA
:101B600042E450E06CE072E080E80C94040AFC016E
:101B700081819081913A59F4813209F03CC047E06B
:101B800050E062E071E080E00E94040A43C09132BC
:101B900091F5803239F467E070E082E091E00E94D4
:101BA000350A06C0823209F035C08281809309016E
:101BB0008091020190910301A0910401B09105016F
:101BC000803B9440A105B105C1F48091090180FDDD
:101BD00014C087E797E790930108809300082BE0F3
:101BE00088E190E00FB6F894A895809360000FBE4E
:101BF000209360000FC080E0089588E10FB6F8944C
:101C000080936000109260000FBEA89510920108AA
:101C10001092000881E008951092880210928702C5
:101C200088EE93E0A0E0B0E08093890290938A026E
:101C3000A0938B02B0938C0289E691E09093860288
:101C4000809385028FEF9FEF909392028093910291
:101C50000895A1E21A2EAA1BBB1BFD010DC0AA1FED
:101C6000BB1FEE1FFF1FA217B307E407F50720F005
:101C7000A21BB30BE40BF50B661F771F881F991F80
:101C80001A9469F760957095809590959B01AC01C9
:101C9000BD01CF010895EE0FFF1F0590F491E02DD7
:101CA0000994FB01DC010D900020E9F711970190E8
:101CB0000D920020E1F70895FB01DC018D91019068
:0E1CC00080190110D9F3990B0895F894FFCF05
:101CCE00010100E1000000000000244750524D4386
:101CDE000041006C61743A2020006465672020008A
:101CEE006D696E20006C6F6E673A20006465672028
:101CFE00007369676E616C20475053206E6F6E20C3
:101D0E0076616C6964650000000000D4059B065680
:101D1E00056F056105B205000000000B0C9B067EE9
:101D2E000CEC0C340D000000004F0D960D790D8952
:061D3E000D650D760D009D
:00000001FF
