:100000000C9470010C9498010C9498010C94980134
:100010000C9498010C9498010C9498010C949801FC
:100020000C9498010C949C030C94830A0C944F0933
:100030000C9498010C9498010C9498010C949801DC
:100040000C9498010C9498010C9498010C949801CC
:100050000C9498010C9498010C9498010C94F70A54
:100060000C9498010C9498010C9498010C949801AC
:100070000C9498010C9498010C9498010C9498019C
:100080000C9498010C9498010C9498010C9498018C
:100090000C9498010C9498010C9498010C9498017C
:1000A0000C9498010C9498010C9498015E056105DC
:1000B000500554055A0582058205820565056905C6
:1000C0006D057305770582057D05000000020009B6
:1000D0000F0000030401000C0000000000000000FD
:1000E00000000000000000000408020110408040F1
:1000F000102040804080080204018040201002014E
:10010000108010204040040404040403040502028B
:1001100002020403020202020606060606060404A0
:1001200002020204000000002300260029002C0027
:100130002F0000000000250028002B002E003100B9
:1001400000000000240027002A002D003000080BCA
:100150000002020201000904000001020200000581
:1001600024001001052401010104240206052406CF
:1001700000010705810310004009040100020A0084
:10018000000007050202400000070583024000004E
:1001900000C18081C11201000202000040412336EB
:1001A0008000010102000112010002000000404134
:1001B00023368000010102000141726475696E6F8F
:1001C000204C4C430041726475696E6F204C656F22
:1001D0006E6172646F0004030904000000000000F7
:1001E00000002A2B28000000000000000000000092
:1001F000000000000000000000002C9EB4A0A1A29E
:10020000A434A6A7A5AE362D3738271E1F202122DD
:1002100023242526B333B62EB7B89F8485868788D6
:10022000898A8B8C8D8E8F909192939495969798C6
:10023000999A9B9C9D2F3130A3AD35040506070884
:10024000090A0B0C0D0E0F101112131415161718A6
:10025000191A1B1C1DAFB1B0B5000904020001033F
:100260000000000921010100012265000705840347
:1002700040000105010902A1010901A10085010554
:1002800009190129031500250195037501810295BE
:1002900001750581030501093009310938158125EA
:1002A0007F750895038106C0C005010906A1018577
:1002B00002050719E029E715002501750195088158
:1002C00002950175088103950675081500256505D9
:1002D00007190029658100C07702B506180D7E0256
:1002E00011241FBECFEFDAE0DEBFCDBF11E0A0E0EA
:1002F000B1E0E6E5FBE102C005900D92A637B1073B
:10030000D9F722E0A6E7B1E001C01D92AA39B207F1
:10031000E1F712E0CEEDD2E004C02297FE010E9488
:100320007D0DC83DD107C9F70E94D3060C949E0DE0
:100330000C94000040E855E260E070E088EC91E049
:100340000E949F0440E855E260E070E08BE292E09A
:100350000C94AF06CF93E0E0F0E040E050E020E006
:1003600030E0D901A858BE4FAC91AC3219F43196A7
:100370002F5F3F4FE617F70751F4D901A858BE4F3A
:10038000CC91DC01A40FB51FCC934F5F5F4F2F5F63
:100390003F4F203531052CF3FC01E40FF51F10828F
:1003A000CF910895CF93DF93CDB7DEB764970FB6A3
:1003B000F894DEBF0FBECDBF60E070E0CE010196C5
:1003C0000E94AA016AE071E0CE0101960E94950D9B
:1003D000892B09F083C062E070E0CE0101960E9493
:1003E000AA0161E171E0CE0101960E94950D892B71
:1003F00009F06EC063E070E0CE0101960E94AA0190
:1004000063E171E08BE292E00E94240769818BE254
:1004100092E00E9426076A818BE292E00E94260702
:100420006AE171E08BE292E00E942407BE016D5FF9
:100430007F4F8BE292E00E94240760E271E08BE242
:1004400092E00E94240764E070E0CE0101960E94D1
:10045000AA01BE016F5F7F4F8BE292E00E944107CD
:1004600065E070E0CE0101960E94AA0165E271E0AC
:100470008BE292E00E94240769818BE292E00E9465
:1004800026076A818BE292E00E9426076B818BE24D
:1004900092E00E9426076CE271E08BE292E00E94FB
:1004A0002407BE016C5F7F4F8BE292E00E9424071D
:1004B00060E271E08BE292E00E94240766E070E067
:1004C000CE0101960E94AA01BE016F5F7F4F02C05C
:1004D00061E371E08BE292E00E94410764960FB6FF
:1004E000F894DEBF0FBECDBFDF91CF91089520E01D
:1004F0004AE069E088EC91E00C946F0488EC91E0AC
:100500000C94160488EC91E00E9436031816190624
:10051000FCF488EC91E00E94A902209176013091D0
:100520007701F901E858FE4F8A3059F0203531053E
:1005300044F480832F5F3F4F3093770120937601FF
:100540000895108210927701109276010C94D201D6
:1005500008952091290230912A0228173907B9F409
:100560009091E7018091E801981789F0E091E70107
:10057000F0E0E751FE4F80812091E70130E02F5FEE
:100580003F4F2F7333272093E70190E008958FEFBB
:100590009FEF08951F93CF93DF93DC015C968D91BD
:1005A0009C915D97009749F481E090E013969C93AD
:1005B0008E93129780E090E03BC05196ED91FC91B4
:1005C000529750962C915097322F30951FB75E96C8
:1005D0004C915E9741FB772770F941FD6095F89447
:1005E0004081772311F0422B01C043234083EC016B
:1005F0002197F1F748E0508160FF02C0522B01C003
:1006000053235083EC012197F1F76695415099F7F8
:100610008081772311F0832301C0822B80831FBF49
:100620005C968D919C915D970197F1F781E090E048
:10063000DF91CF911F9108952091290230912A02D4
:100640002817390781F49091E7018091E801981704
:1006500051F0E091E701F0E0E751FE4F80819927EA
:1006600087FD909508958FEF9FEF089520912902BF
:1006700030912A022817390771F48091E8012091FE
:10068000E70190E0805C9F4F821B910960E470E07D
:100690000E94260D089580E090E00895209129029F
:1006A00030912A022817390739F48FB7F89410923D
:1006B000E8011092E7018FBF0895E0912902F091BF
:1006C0002A02E817F90769F4A389B4899C918589FE
:1006D000809589238C9310922A021092290281E03E
:1006E000089580E00895CF93DF93EC018A8D9B8D70
:1006F000892BF1F08091290290912A028C179D0795
:10070000B9F0009711F00E945D038E8D8E7F8E8F61
:100710001092E8011092E701D0932A02C0932902B7
:10072000EB89FC8980819D89892B808381E001C0D0
:1007300080E0DF91CF9108951F920F920FB60F9234
:1007400011242F933F934F935F936F937F938F93D6
:100750009F93AF93BF93EF93FF93E0912902F091A2
:100760002A02309709F451C0868DA685B7859585F4
:1007700081FF04C08C91892329F447C08C9189237F
:1007800009F043C0A389B4899C9185898095892308
:100790008C93868997890197F1F7208D318DA685F5
:1007A000B785758558E040E0C9010197F1F7842FBE
:1007B00090E095958795482F6C91672309F04068E4
:1007C000515091F7868D81FD40958091E80190E030
:1007D00001968F7399272091E701281749F0A0917E
:1007E000E801B0E0A751BE4F4C938093E80103C0ED
:1007F000868D8160868F828D938D0197F1F7A38915
:10080000B4898C919589892B8C93FF91EF91BF913D
:10081000AF919F918F917F916F915F914F913F9198
:100820002F910F900FBE0F901F9018952BE431E081
:10083000FC01318320830C945D031F93CF93DF93DE
:10084000EC01162F6E8D6695617081E06827812F0F
:100850000E94BC0561E0812F0E948305812F90E0FA
:10086000FC01E851FF4FE491E88BFC01EA5FFE4F89
:10087000E491F0E0EE0FFF1FEE5CFE4F8591949146
:100880009A8B898BDF91CF911F9108951F93CF93FE
:10089000DF93EC01162F60E0812F0E9483058E8D7F
:1008A00081FD04C061E0812F0E94BC051C87812F5F
:1008B00090E0FC01E851FF4FE491ED87FC01EA5F15
:1008C000FE4FE491F0E0EE0FFF1FEC5DFE4F8591CF
:1008D00094919F878E87DF91CF911F910895FF920A
:1008E0000F931F93CF93DF93EC01F62E522F1B82B1
:1008F0001A8208EE13E020E030E00C831D832E8383
:100900003F838BE491E0998388831F8A1E8A198E26
:10091000188E1B8E1A8E1D8E1C8E8E8D8E7F50FB18
:1009200081F98E8F642FCE010E941D046F2DCE01A0
:10093000DF91CF911F910F91FF900C944604CF93BC
:10094000DF93EC019A01AB011B8E1A8E198E188E63
:100950001F8A1E8A60E079E08DE390E00E945C0DC2
:10096000C9012430310520F0B9016350710902C07A
:1009700061E070E07D8F6C8FEC85F8EFFE0FF43056
:1009800048F062EF6E0F643028F066EE6E0F633051
:1009900008F06FC0B901769567956431710518F05C
:1009A0006351710902C061E070E07F8B6E8B069726
:1009B00018F0C901059702C081E090E0998F888FF7
:1009C000C901880F991F820F931F96958795969559
:1009D00087958D30910510F00C9702C081E090E072
:1009E0009B8F8A8FF43058F082EF8E0F843038F06E
:1009F000EA51E33008F042C0A8E6B0E041C0A8E602
:100A0000B0E0E8E6F0E0808181608C932C8538EFDF
:100A1000320F343040F082EF820F843020F086EEC7
:100A2000820F833018F48BE690E002C080E090E003
:100A30009C8B8B8B343010F4245009C02E3069F01D
:100A40002F3069F0203169F0213169F0265181E0C1
:100A500001C0880F2A95EAF707C088E005C082E048
:100A600003C084E001C081E08D8B8C8D9D8D01974A
:100A7000F1F7CE01DF91CF910C947303A0E0B0E0C9
:100A8000E33008F4BECFE0E0F0E0BDCF90E0FC0141
:100A90003197EF30F105B0F5EA5AFF4F0C947B0D1A
:100AA000809180008F7703C0809180008F7D80933C
:100AB0008000089580918000877FF9CF84B58F777B
:100AC00002C084B58F7D84BD0895809190008F779A
:100AD00007C0809190008F7D03C080919000877F38
:100AE0008093900008958091C0008F7703C080911B
:100AF000C0008F7D8093C00008958091C200877FE1
:100B00008093C2000895CF93DF9390E0FC01E851F9
:100B1000FF4F2491FC01EA5FFE4F8491882349F145
:100B200090E0880F991FFC01E05CFE4FA591B49105
:100B30008E5C9E4FFC01C591D4919FB7611108C096
:100B4000F8948C91209582238C93888182230AC00B
:100B5000623051F4F8948C91322F309583238C932A
:100B60008881822B888304C0F8948C91822B8C938B
:100B70009FBFDF91CF9108950F931F93CF93DF9382
:100B80001F92CDB7DEB7282F30E0F901E653FF4FB3
:100B90008491F901E851FF4F1491F901EA5FFE4F8A
:100BA00004910023C9F0882321F069830E9446053F
:100BB0006981E02FF0E0EE0FFF1FEE5CFE4FA59184
:100BC000B4919FB7F8948C91611103C01095812363
:100BD00001C0812B8C939FBF0F90DF91CF911F910C
:100BE0000F910895CF93DF931F92CDB7DEB769833E
:100BF000DC01ED91FC910280F381E02D41E050E0B9
:100C0000BE016F5F7F4F09950F90DF91CF910895DF
:100C1000CF93DF93EC018C859D8597FF05C082E023
:100C20000E9424089D878C878C859D85DF91CF91BC
:100C3000089583E00C94790AFC018485958597FDDD
:100C400006C082E00E94CC0790E00196089582E001
:100C50000E94CC0790E00895FC018485958597FD5E
:100C600005C02FEF3FEF35872487089582E00C946D
:100C70002408CF93DF93EC0180910701882331F0A2
:100C800083E00E9455081816190634F081E090E0C0
:100C90009B838A8380E090E0DF91CF910895FC01EF
:100CA00020812E5F208342E450E06EE471E080E812
:100CB0000C94F008FC0181819081913A59F48132C1
:100CC00009F03CC047E050E060E071E080E00E9445
:100CD000F00843C0913291F5803239F467E070E05A
:100CE00080E091E00E94210906C0823209F035C0FF
:100CF0008281809307018091000190910101A09170
:100D00000201B0910301803B9440A105B105C1F4FB
:100D10008091070180FD14C087E797E79093010851
:100D2000809300082BE088E190E00FB6F894A89536
:100D3000809360000FBE209360000FC080E0089594
:100D400088E10FB6F89480936000109260000FBEA7
:100D5000A895109201081092000881E008952FEFE5
:100D60003FEFFC0135872487089510922E021092E0
:100D70002D0288EE93E0A0E0B0E080932F029093E4
:100D80003002A0933102B09332028BE591E0909350
:100D90002C0280932B028FEF9FEF90933802809369
:100DA0003702089508950E948C0B0E94D2068BE7AB
:100DB00092E00E94D90A0E949A01C0E0D0E00E940D
:100DC00082022097E1F30E940000F9CFCF92DF92D8
:100DD000EF92FF920F931F93CF93DF936C017A01F1
:100DE000EB01E60EF71E00E010E0CE15DF0561F026
:100DF0006991D601ED91FC910190F081E02DC60141
:100E00000995080F191FF1CFC801DF91CF911F91EC
:100E10000F91FF90EF90DF90CF90089561157105CD
:100E200081F0DB010D900020E9F7AD01415051093F
:100E3000461B570BDC01ED91FC910280F381E02D04
:100E4000099480E090E008950C940E07DC01ED9188
:100E5000FC910190F081E02D09940F931F93CF93A3
:100E6000DF93EC016DE00E9426078C016AE0CE0161
:100E70000E942607800F911FDF91CF911F910F9144
:100E800008950F931F93CF93DF93EC010E940E07F9
:100E90008C01CE010E942D07800F911FDF91CF9111
:100EA0001F910F91089540917F02509180022091EF
:100EB0007D0230917E0242175307B4F49091E8000E
:100EC0009570E1F39091E80092FD19C08093F100D4
:100ED00080917F029091800201968F739927892BD0
:100EE00019F48EEF8093E80080917F029091800248
:100EF00001969093800280937F0281E0089580E0C4
:100F00000895CF92DF92FF920F931F93CF93DF93B9
:100F10001F92CDB7DEB7082F162F862F880F8E5F52
:100F200099830E94530783E00E945307F02EC02E3E
:100F30009981D92E8C2D8F19811778F4F60184911F
:100F40000E945307082F80E00E9453078023FFEF81
:100F5000CF1ADF0A8111EECF01C081E00F90DF913F
:100F6000CF911F910F91FF90DF90CF900895615026
:100F700030F02091F100FC0120830196F8CF2898F1
:100F800084E68093820208952FB7FC012083F894B1
:100F900067706093E9000895CF93DF931F92CDB7F8
:100FA000DEB7682FCE0101960E94C4078091F2003F
:100FB00099819FBF0F90DF91CF910895FF920F937A
:100FC0001F93CF93DF9300D0CDB7DEB7F62E8A0103
:100FD00090918102992311F057FF03C08FEF9FEF8B
:100FE0002BC0682FCE0101967A830E94C40780919E
:100FF000F20090E0A8017A81801791070CF4AC010F
:10100000EF2DF72FF40E84E6FE1639F02898809322
:1010100082029091F1009193F7CF4115510521F093
:101020008091F200882321F089818FBFCA0104C01A
:101030008BE68093E800F8CF0F900F90DF91CF916F
:101040001F910F91FF900895CF93DF931F92CDB71B
:10105000DEB741E050E0BE016F5F7F4F0E94DE07C8
:10106000019719F4898190E002C08FEF9FEF0F90F4
:10107000DF91CF910895CF93DF931F92CDB7DEB765
:10108000682FCE0101960E94C4079091E800892F35
:10109000807295FF04C09091F20080E4891B9981D1
:1010A0009FBF0F90DF91CF9108956F927F928F92A3
:1010B0009F92AF92BF92CF92DF92EF92FF920F93E7
:1010C0001F93CF93DF931F92CDB7DEB7782E7B01AE
:1010D000C42EB52E80918102882369F0042F152F2C
:1010E0008AEFD82E872D8072982E9AE3A92E872D0D
:1010F0008074882E11C08FEF9FEF57C0872D0E94FC
:101100003B08682E81110CC0DA94A9F361E070E00D
:1011100080E090E00E94640B0115110579F73BC057
:10112000282F30E0021713070CF4602E672DCE0134
:1011300001960E94C4078091E80085FF29C0262DF2
:1011400030E0021B130B992039F06A948FEF681678
:10115000B1F01092F100F9CFF701862D77FE07C0AC
:10116000815058F094919093F1003196F9CF8150CD
:1011700020F091919093F100FACFE20EF31E80914E
:10118000E80085FF0FC00115110511F481100AC098
:1011900089818FBFC1CF5D9884E6809383028C2DB7
:1011A0009B2D03C0A092E800F3CF0F90DF91CF9169
:1011B0001F910F91FF90EF90DF90CF90BF90AF9075
:1011C0009F908F907F906F9008951092E9001092F9
:1011D000800210927F0290937E0280937D02089598
:1011E000CF92DF92FF920F931F93CF93DF9300D0A4
:1011F000CDB7DEB7F82E8A016B0101151105B1F0EC
:10120000F601F7FE02C0849101C0808149835A83B0
:101210000E94530701501109FFEFCF1ADF0A4981DD
:101220005A818111EACF8FEF9FEF01C0CA010F9061
:101230000F90DF91CF911F910F91FF90DF90CF9092
:1012400008951F93CF93DF931F92CDB7DEB7162F6C
:101250002091E80022FFFCCF612F79830E94B7071D
:101260008BEF8093E800812F7981972F0F90DF918A
:10127000CF911F910895CF93DF931F92CDB7DEB723
:101280001982CE0101960E944F06CE0101960E945E
:10129000000C898190E00F90DF91CF9108951F920B
:1012A0000F920FB60F921124EF92FF920F931F939C
:1012B0002F933F934F935F936F937F938F939F935E
:1012C000AF93BF93EF93FF93CF93DF93CDB7DEB789
:1012D0006297DEBFCDBF1092E9008091E80083FFE6
:1012E000EBC068E0CE010A960E94B70782EF8093B8
:1012F000E8009A8597FF05C08091E80080FFFCCF49
:1013000003C08EEF8093E800892F807609F0B9C082
:101310008B85811105C01092F1001092F100C5C0BB
:10132000282F2D7F213009F4C0C0853049F48091E9
:10133000E80080FFFCCF8C8580688093E300B5C017
:10134000863009F076C02D85E888F988223071F55D
:1013500080E090E02A8B0E94E5080E943B0999E01A
:101360008E010F5F1F4FF801392F11923A95E9F75F
:1013700099832A892A8391E09E8390E898879AEF3F
:10138000998720917F0230918002275F3F4F3C83F5
:101390002B838D83C7010E94E50849E050E0B80126
:1013A00080E00E94F0080E943B097FC0C7012A8BA1
:1013B0000E94E5082A89223241F482E290E00E94EC
:1013C0000B0C892B09F071C074C0213069F4888935
:1013D0009989089711F420937C0280917C028111F5
:1013E00018C067EA71E01AC0233009F062C08C852A
:1013F000882391F0823021F460E185EC91E006C011
:10140000813009F056C06BE089EB91E00E948107C2
:101410004AC065E971E002C066ED71E061157105D1
:1014200009F447C0FB01449150E080E80E94F008B5
:101430003CC0873009F43DC0883021F481E08093BE
:10144000F10033C0893089F5937099F5E1E9F1E055
:1014500081E021E096E38093E9002093EB00349152
:101460003093EC009093ED008F5F3196853099F7C3
:101470008EE78093EA001092EA008C8580938102C7
:1014800014C0888999890E94E5088E85811105C05C
:10149000CE010A960E945A0606C0823051F4CE014F
:1014A0000A960E94330C882321F08EEF8093E80087
:1014B00003C081E28093EB0062960FB6F894DEBF22
:1014C0000FBECDBFDF91CF91FF91EF91BF91AF9153
:1014D0009F918F917F916F915F914F913F912F914C
:1014E0001F910F91FF90EF900F900FBE0F901F90E4
:1014F00018958093E9008091F200882319F08AE31F
:101500008093E80008951F920F920FB60F92112456
:101510002F933F934F935F936F937F938F939F93FB
:10152000AF93BF93EF93FF938091E1001092E1009E
:1015300083FF0FC01092E90091E09093EB001092AE
:10154000EC0092E39093ED001092810298E090936A
:10155000F00082FF1DC083E00E94790A809183021F
:10156000882339F0809183028150809383028823FD
:1015700069F080918202882359F080918202815023
:1015800080938202811104C0289A02C05D9AF1CF33
:10159000FF91EF91BF91AF919F918F917F916F914B
:1015A0005F914F913F912F910F900FBE0F901F9021
:1015B00018951092810281E08093D70080EA809391
:1015C000D80082E189BD09B400FEFDCF61E070E082
:1015D00080E090E00E94640B80E98093D8008CE06A
:1015E0008093E2001092E000559A209A08951F928D
:1015F0000F920FB60F9211242F933F938F939F93C7
:10160000AF93BF938091850290918602A09187024B
:10161000B09188023091840223E0230F2D3720F40B
:101620000196A11DB11D05C026E8230F0296A11D3C
:10163000B11D209384028093850290938602A0932B
:101640008702B09388028091890290918A02A091CA
:101650008B02B0918C020196A11DB11D809389026D
:1016600090938A02A0938B02B0938C02BF91AF91AA
:101670009F918F913F912F910F900FBE0F901F90D0
:1016800018953FB7F8948091890290918A02A091B1
:101690008B02B0918C0226B5A89B05C02F3F19F094
:1016A0000196A11DB11D3FBF6627782F892F9A2F64
:1016B000620F711D811D911D42E0660F771F881F0B
:1016C000991F4A95D1F70895CF92DF92EF92FF923A
:1016D000CF93DF936B017C010E94410BEB01C1149E
:1016E000D104E104F10489F00E94250D0E94410B10
:1016F0006C1B7D0B683E734090F381E0C81AD108E3
:10170000E108F108C851DC4FEACFDF91CF91FF909B
:10171000EF90DF90CF900895789484B5826084BD77
:1017200084B5816084BD85B5826085BD85B58160E5
:1017300085BDEEE6F0E0808181608083E1E8F0E045
:101740001082808182608083808181608083E0E874
:10175000F0E0808181608083E1E9F0E08081826057
:101760008083808181608083E0E9F0E08081816016
:101770008083E1ECF0E080818460808380818260FE
:101780008083808181608083E3ECF0E080818160F0
:101790008083E0ECF0E0808182608083E2ECF0E026
:1017A000808181608083EAE7F0E0808184608083CB
:1017B0008081826080838081816080838081806875
:1017C00080830895FF920F931F93CF93DF93EC01D3
:1017D000F62EE881F9810480F581E02D09958C01D0
:1017E000E881F9810680F781E02D6F2DCE01099502
:1017F000C8019927DF91CF911F910F91FF90089514
:10180000FC0120812F5F208349E150E06AE572E00E
:1018100080E80C94F00845E650E063E772E080E869
:101820000C94F008EF92FF920F931F93CF93DF93E6
:101830001F92CDB7DEB789838B017A0141E050E07A
:10184000BE016F5F7F4F84E00E945508A701B80179
:1018500084E40E9455080F90DF91CF911F910F9162
:10186000FF90EF900895FC0191818081813A31F4DD
:1018700081E0913091F0933089F411C0813271F49C
:101880009B3021F482818093090105C09A3031F4A4
:1018900082818093080181E00895089580E0089591
:1018A00048E050E082E00C94120CCF93DF93DC010F
:1018B000683818F0E8E7E60F25C0E62FF0E067FF8C
:1018C00011C0E058F10981E090E001C0880FEA956D
:1018D000EAF714969C911497982B14969C9314975E
:1018E000E0E010C0E652FE4FE491EE2309F440C060
:1018F000E7FF08C014968C911497826014968C931D
:101900001497EF7716968C9116978E1741F11796CC
:101910008C9117978E1719F118968C9118978E172E
:10192000F1F019968C9119978E17C9F01A968C912F
:101930001A978E17A1F01B968C911B978E1779F032
:1019400080E090E0ED01C80FD91F2E81211102C067
:10195000EE8305C0019686309105A1F709C0BD014F
:101960006C5F7F4FCD010E94500C81E090E008C079
:1019700081E090E013969C938E93129780E090E024
:10198000DF91CF910895683818F0E8E7E60F25C099
:10199000E62FF0E067FF12C0E058F10921E030E0E7
:1019A00001C0220FEA95EAF72095DC0114963C91DC
:1019B0001497322314963C93E0E00FC0E652FE4F9A
:1019C000E491EE2329F1E7FF08C0DC0114962C9185
:1019D00014972D7F14962C93EF7720E030E0EE23C0
:1019E00051F0DC01A20FB31F16964C9116974E13BF
:1019F00002C016961C922F5F3F4F2630310579F7B3
:101A0000BC016C5F7F4F0E94500C81E090E0089514
:101A100080E090E00895FC011682178210861186FE
:101A2000128613861482BC016C5F7F4F0C94500C9D
:101A3000109299021092900210928F028BE691E020
:101A400090938E0280938D020895089597FB072E40
:101A500016F4009407D077FD09D00E94810D07FC91
:101A600005D03EF4909581959F4F089570956195AE
:101A70007F4F0895A1E21A2EAA1BBB1BFD010DC0CA
:101A8000AA1FBB1FEE1FFF1FA217B307E407F5072E
:101A900020F0A21BB30BE40BF50B661F771F881F0A
:101AA000991F1A9469F760957095809590959B01A0
:101AB000AC01BD01CF010895052E97FB1EF40094E3
:101AC0000E94730D57FD07D00E943A0D07FC03D00A
:101AD0004EF40C94730D50954095309521953F4FE1
:101AE0004F4F5F4F089590958095709561957F4F0A
:101AF0008F4F9F4F0895EE0FFF1F0590F491E02D3B
:101B00000994AA1BBB1B51E107C0AA1FBB1FA61744
:101B1000B70710F0A61BB70B881F991F5A95A9F796
:101B200080959095BC01CD010895FB01DC018D915C
:101B3000019080190110D9F3990B089512E0CEEDB0
:101B4000D2E004C0FE010E947D0D2296C03ED10766
:061B5000C9F7F894FFCF75
:101B560000E10000000000000101244750524D43FF
:101B66000041006C61743A20200064656720200003
:101B76006D696E20006C6F6E673A200064656720A1
:101B8600007369676E616C20475053206E6F6E203C
:101B960076616C6964650000000000CA02E60636DC
:101BA60003A9021C034E0300000000F20539061CBF
:101BB600062C060806190600000000E20BE606558C
:061BC6000CC30C0B0D0026
:00000001FF
